{
  "contractName": "MyERC20",
  "abi": [
    {
      "inputs": [],
      "stateMutability": "nonpayable",
      "type": "constructor"
    },
    {
      "anonymous": false,
      "inputs": [
        {
          "indexed": true,
          "internalType": "address",
          "name": "owner",
          "type": "address"
        },
        {
          "indexed": true,
          "internalType": "address",
          "name": "spender",
          "type": "address"
        },
        {
          "indexed": false,
          "internalType": "uint256",
          "name": "value",
          "type": "uint256"
        }
      ],
      "name": "Approval",
      "type": "event"
    },
    {
      "anonymous": false,
      "inputs": [
        {
          "indexed": true,
          "internalType": "address",
          "name": "from",
          "type": "address"
        },
        {
          "indexed": true,
          "internalType": "address",
          "name": "to",
          "type": "address"
        },
        {
          "indexed": false,
          "internalType": "uint256",
          "name": "value",
          "type": "uint256"
        }
      ],
      "name": "Transfer",
      "type": "event"
    },
    {
      "inputs": [],
      "name": "duration",
      "outputs": [
        {
          "internalType": "uint256",
          "name": "",
          "type": "uint256"
        }
      ],
      "stateMutability": "view",
      "type": "function",
      "constant": true
    },
    {
      "inputs": [],
      "name": "owner",
      "outputs": [
        {
          "internalType": "address",
          "name": "",
          "type": "address"
        }
      ],
      "stateMutability": "view",
      "type": "function",
      "constant": true
    },
    {
      "inputs": [],
      "name": "updateTimestamp",
      "outputs": [
        {
          "internalType": "uint256",
          "name": "",
          "type": "uint256"
        }
      ],
      "stateMutability": "view",
      "type": "function",
      "constant": true
    },
    {
      "inputs": [],
      "name": "name",
      "outputs": [
        {
          "internalType": "string",
          "name": "",
          "type": "string"
        }
      ],
      "stateMutability": "view",
      "type": "function",
      "constant": true
    },
    {
      "inputs": [],
      "name": "symbol",
      "outputs": [
        {
          "internalType": "string",
          "name": "",
          "type": "string"
        }
      ],
      "stateMutability": "view",
      "type": "function",
      "constant": true
    },
    {
      "inputs": [],
      "name": "decimals",
      "outputs": [
        {
          "internalType": "uint8",
          "name": "",
          "type": "uint8"
        }
      ],
      "stateMutability": "view",
      "type": "function",
      "constant": true
    },
    {
      "inputs": [],
      "name": "totalSupply",
      "outputs": [
        {
          "internalType": "uint256",
          "name": "",
          "type": "uint256"
        }
      ],
      "stateMutability": "view",
      "type": "function",
      "constant": true
    },
    {
      "inputs": [
        {
          "internalType": "address",
          "name": "account",
          "type": "address"
        }
      ],
      "name": "balanceOf",
      "outputs": [
        {
          "internalType": "uint256",
          "name": "",
          "type": "uint256"
        }
      ],
      "stateMutability": "view",
      "type": "function",
      "constant": true
    },
    {
      "inputs": [
        {
          "internalType": "address",
          "name": "recipient",
          "type": "address"
        },
        {
          "internalType": "uint256",
          "name": "amount",
          "type": "uint256"
        }
      ],
      "name": "transfer",
      "outputs": [
        {
          "internalType": "bool",
          "name": "",
          "type": "bool"
        }
      ],
      "stateMutability": "nonpayable",
      "type": "function"
    },
    {
      "inputs": [
        {
          "internalType": "address",
          "name": "owner_",
          "type": "address"
        },
        {
          "internalType": "address",
          "name": "spender",
          "type": "address"
        }
      ],
      "name": "allowance",
      "outputs": [
        {
          "internalType": "uint256",
          "name": "",
          "type": "uint256"
        }
      ],
      "stateMutability": "view",
      "type": "function",
      "constant": true
    },
    {
      "inputs": [
        {
          "internalType": "address",
          "name": "spender",
          "type": "address"
        },
        {
          "internalType": "uint256",
          "name": "amount",
          "type": "uint256"
        }
      ],
      "name": "approve",
      "outputs": [
        {
          "internalType": "bool",
          "name": "",
          "type": "bool"
        }
      ],
      "stateMutability": "nonpayable",
      "type": "function"
    },
    {
      "inputs": [
        {
          "internalType": "address",
          "name": "sender",
          "type": "address"
        },
        {
          "internalType": "address",
          "name": "recipient",
          "type": "address"
        },
        {
          "internalType": "uint256",
          "name": "amount",
          "type": "uint256"
        }
      ],
      "name": "transferFrom",
      "outputs": [
        {
          "internalType": "bool",
          "name": "",
          "type": "bool"
        }
      ],
      "stateMutability": "nonpayable",
      "type": "function"
    },
    {
      "inputs": [
        {
          "internalType": "address",
          "name": "spender",
          "type": "address"
        },
        {
          "internalType": "uint256",
          "name": "addedValue",
          "type": "uint256"
        }
      ],
      "name": "increaseAllowance",
      "outputs": [
        {
          "internalType": "bool",
          "name": "",
          "type": "bool"
        }
      ],
      "stateMutability": "nonpayable",
      "type": "function"
    },
    {
      "inputs": [
        {
          "internalType": "address",
          "name": "spender",
          "type": "address"
        },
        {
          "internalType": "uint256",
          "name": "subtractedValue",
          "type": "uint256"
        }
      ],
      "name": "decreaseAllowance",
      "outputs": [
        {
          "internalType": "bool",
          "name": "",
          "type": "bool"
        }
      ],
      "stateMutability": "nonpayable",
      "type": "function"
    },
    {
      "inputs": [
        {
          "internalType": "address",
          "name": "to_",
          "type": "address"
        },
        {
          "internalType": "uint256",
          "name": "amount_",
          "type": "uint256"
        }
      ],
      "name": "mint",
      "outputs": [],
      "stateMutability": "nonpayable",
      "type": "function"
    },
    {
      "inputs": [
        {
          "internalType": "address",
          "name": "minter_",
          "type": "address"
        }
      ],
      "name": "setMinter",
      "outputs": [],
      "stateMutability": "nonpayable",
      "type": "function"
    }
  ],
  "bytecode": "0x608060405234801561001057600080fd5b50610d4d806100206000396000f3fe608060405234801561001057600080fd5b50600436106101005760003560e01c806340c10f1911610097578063a457c2d711610066578063a457c2d7146101e8578063a9059cbb146101fb578063dd62ed3e1461020e578063fca3b5aa1461022157610100565b806340c10f19146101a357806370a08231146101b85780638da5cb5b146101cb57806395d89b41146101e057610100565b80631c5be3d7116100d35780631c5be3d71461016057806323b872dd14610168578063313ce5671461017b578063395093511461019057610100565b806306fdde0314610105578063095ea7b3146101235780630fb5a6b41461014357806318160ddd14610158575b600080fd5b61010d610234565b60405161011a9190610a69565b60405180910390f35b610136610131366004610a21565b6102c6565b60405161011a9190610a5e565b61014b610326565b60405161011a9190610c42565b61014b61032c565b61014b610332565b6101366101763660046109e6565b610338565b6101836103d4565b60405161011a9190610c4b565b61013661019e366004610a21565b6103dd565b6101b66101b1366004610a21565b61045e565b005b61014b6101c6366004610993565b6104ef565b6101d3610519565b60405161011a9190610a4a565b61010d610528565b6101366101f6366004610a21565b610537565b610136610209366004610a21565b6105b8565b61014b61021c3660046109b4565b61060e565b6101b661022f366004610993565b610639565b60606004805461024390610c9c565b80601f016020809104026020016040519081016040528092919081815260200182805461026f90610c9c565b80156102bc5780601f10610291576101008083540402835291602001916102bc565b820191906000526020600020905b81548152906001019060200180831161029f57829003601f168201915b5050505050905090565b600080600854426102d79190610c85565b90506000600954826102e99190610c71565b1115610311576009546102fc9082610cd7565b6103069042610c85565b6008556103116106d2565b61031c3385856106f1565b5060019392505050565b60095481565b60035490565b60085481565b600080600854426103499190610c85565b905060006009548261035b9190610c71565b11156103835760095461036e9082610cd7565b6103789042610c85565b6008556103836106d2565b61038e8585856107a5565b6001600160a01b0385166000908152600160209081526040808320338085529252909120546103c99187916103c4908790610c85565b6106f1565b506001949350505050565b60065460ff1690565b600080600854426103ee9190610c85565b90506000600954826104009190610c71565b1115610428576009546104139082610cd7565b61041d9042610c85565b6008556104286106d2565b3360008181526001602090815260408083206001600160a01b038916845290915290205461031c919086906103c4908790610c59565b60006008544261046e9190610c85565b90506000600954826104809190610c71565b11156104a8576009546104939082610cd7565b61049d9042610c85565b6008556104a86106d2565b3360009081526002602052604090205460ff166104e05760405162461bcd60e51b81526004016104d790610abc565b60405180910390fd5b6104ea83836108b1565b505050565b6007546000908152602081815260408083206001600160a01b03851684529091529020545b919050565b600a546001600160a01b031681565b60606005805461024390610c9c565b600080600854426105489190610c85565b905060006009548261055a9190610c71565b11156105825760095461056d9082610cd7565b6105779042610c85565b6008556105826106d2565b3360008181526001602090815260408083206001600160a01b038916845290915290205461031c919086906103c4908790610c85565b600080600854426105c99190610c85565b90506000600954826105db9190610c71565b1115610603576009546105ee9082610cd7565b6105f89042610c85565b6008556106036106d2565b61031c3385856107a5565b6001600160a01b03918216600090815260016020908152604080832093909416825291909152205490565b600a546001600160a01b031633146106635760405162461bcd60e51b81526004016104d790610beb565b6000600854426106739190610c85565b90506000600954826106859190610c71565b11156106ad576009546106989082610cd7565b6106a29042610c85565b6008556106ad6106d2565b506001600160a01b03166000908152600260205260409020805460ff19166001179055565b6001600760008282546106e59190610c59565b90915550506000600355565b6001600160a01b0383166107175760405162461bcd60e51b81526004016104d790610ba7565b6001600160a01b03821661073d5760405162461bcd60e51b81526004016104d790610b20565b6001600160a01b0380841660008181526001602090815260408083209487168084529490915290819020849055517f8c5be1e5ebec7d5bd14f71427d1e84f3dd0314c0f7b2291e5b200ac8c7c3b92590610798908590610c42565b60405180910390a3505050565b6001600160a01b0383166107cb5760405162461bcd60e51b81526004016104d790610b62565b6001600160a01b0382166107f15760405162461bcd60e51b81526004016104d790610add565b6107fc8383836104ea565b6007546000908152602081815260408083206001600160a01b03871684529091528120805483929061082f908490610c85565b90915550506007546000908152602081815260408083206001600160a01b038616845290915281208054839290610867908490610c59565b92505081905550816001600160a01b0316836001600160a01b03167fddf252ad1be2c89b69c2b068fc378daa952ba7f163c4a11628f55a4df523b3ef836040516107989190610c42565b6001600160a01b0382166108d75760405162461bcd60e51b81526004016104d790610c0b565b6108e3600083836104ea565b80600360008282546108f59190610c59565b90915550506007546000908152602081815260408083206001600160a01b03861684529091528120805483929061092d908490610c59565b90915550506040516001600160a01b038316906000907fddf252ad1be2c89b69c2b068fc378daa952ba7f163c4a11628f55a4df523b3ef90610970908590610c42565b60405180910390a35050565b80356001600160a01b038116811461051457600080fd5b6000602082840312156109a4578081fd5b6109ad8261097c565b9392505050565b600080604083850312156109c6578081fd5b6109cf8361097c565b91506109dd6020840161097c565b90509250929050565b6000806000606084860312156109fa578081fd5b610a038461097c565b9250610a116020850161097c565b9150604084013590509250925092565b60008060408385031215610a33578182fd5b610a3c8361097c565b946020939093013593505050565b6001600160a01b0391909116815260200190565b901515815260200190565b6000602080835283518082850152825b81811015610a9557858101830151858201604001528201610a79565b81811115610aa65783604083870101525b50601f01601f1916929092016040019392505050565b60208082526007908201526610b6b4b73a32b960c91b604082015260600190565b60208082526023908201527f45524332303a207472616e7366657220746f20746865207a65726f206164647260408201526265737360e81b606082015260800190565b60208082526022908201527f45524332303a20617070726f766520746f20746865207a65726f206164647265604082015261737360f01b606082015260800190565b60208082526025908201527f45524332303a207472616e736665722066726f6d20746865207a65726f206164604082015264647265737360d81b606082015260800190565b60208082526024908201527f45524332303a20617070726f76652066726f6d20746865207a65726f206164646040820152637265737360e01b606082015260800190565b60208082526006908201526510b7bbb732b960d11b604082015260600190565b6020808252601f908201527f45524332303a206d696e7420746f20746865207a65726f206164647265737300604082015260600190565b90815260200190565b60ff91909116815260200190565b60008219821115610c6c57610c6c610ceb565b500190565b600082610c8057610c80610d01565b500490565b600082821015610c9757610c97610ceb565b500390565b600281046001821680610cb057607f821691505b60208210811415610cd157634e487b7160e01b600052602260045260246000fd5b50919050565b600082610ce657610ce6610d01565b500690565b634e487b7160e01b600052601160045260246000fd5b634e487b7160e01b600052601260045260246000fdfea264697066735822122089c64b775107a9ec7503383c678e8628405d26d4481aa61c0980cec0279c0d3464736f6c63430008010033",
  "immutableReferences": {},
  "source": "// SPDX-License-Identifier: MIT\n\npragma solidity ^0.8.0;\n\ninterface IERC20 {\n\n    function totalSupply() external view returns (uint256);\n\n    function balanceOf(address account) external view returns (uint256);\n\n    function transfer(address recipient, uint256 amount) external returns (bool);\n\n    function allowance(address owner, address spender) external view returns (uint256);\n\n    function approve(address spender, uint256 amount) external returns (bool);\n\n    function transferFrom(address sender, address recipient, uint256 amount) external returns (bool);\n\n    event Transfer(address indexed from, address indexed to, uint256 value);\n\n    event Approval(address indexed owner, address indexed spender, uint256 value);\n}\n\ncontract MyERC20 is IERC20 {\n\n    mapping (uint256 => mapping (address => uint256)) internal _balances;\n\n    mapping (address => mapping (address => uint256)) internal _allowances;\n\n    mapping (address => bool) internal _minter;\n\n    uint256 internal _totalSupply;\n\n    string private _name;\n    string private _symbol;\n    uint8 private _decimals;\n    uint256 internal _balanceKey;\n    uint256 public updateTimestamp;\n    uint256 public duration;\n\n    address public owner;\n\n    constructor () {\n\n    }\n\n    modifier onlyOwner{\n        require(msg.sender == owner, \"!owner\");\n        _;\n    }\n\n    modifier upgradeCheck() {\n        uint256 passedTime = block.timestamp - updateTimestamp;\n        if (passedTime / duration > 0) {\n            updateTimestamp = block.timestamp - passedTime % duration;\n            _upgrade();\n        }\n        _;\n    }\n\n    function name() public view returns (string memory) {\n        return _name;\n    }\n\n    function symbol() public view returns (string memory) {\n        return _symbol;\n    }\n\n    function decimals() public view returns (uint8) {\n        return _decimals;\n    }\n\n    function totalSupply() public view override returns (uint256) {\n        return _totalSupply;\n    }\n\n    function balanceOf(address account) public view override returns (uint256) {\n        return _balances[_balanceKey][account];\n    }\n\n    function transfer(address recipient, uint256 amount) public virtual override upgradeCheck returns (bool) {\n        _transfer(msg.sender, recipient, amount);\n        return true;\n    }\n\n    function allowance(address owner_, address spender) public view virtual override returns (uint256) {\n        return _allowances[owner_][spender];\n    }\n\n    function approve(address spender, uint256 amount) public virtual override upgradeCheck returns (bool) {\n        _approve(msg.sender, spender, amount);\n        return true;\n    }\n\n    function transferFrom(address sender, address recipient, uint256 amount) public virtual override upgradeCheck returns (bool) {\n        _transfer(sender, recipient, amount);\n        _approve(sender, msg.sender, _allowances[sender][msg.sender] - amount);\n        return true;\n    }\n\n    function increaseAllowance(address spender, uint256 addedValue) public virtual upgradeCheck returns (bool) {\n        _approve(msg.sender, spender, _allowances[msg.sender][spender] + addedValue);\n        return true;\n    }\n\n    function decreaseAllowance(address spender, uint256 subtractedValue) public virtual upgradeCheck returns (bool) {\n        _approve(msg.sender, spender, _allowances[msg.sender][spender] - subtractedValue);\n        return true;\n    }\n\n    function mint(address to_, uint256 amount_) external upgradeCheck {\n        require(_minter[msg.sender], \"!minter\");\n        _mint(to_, amount_);\n    }\n\n    function setMinter(address minter_) external onlyOwner upgradeCheck {\n        _minter[minter_] = true;\n    }\n\n    function _transfer(address sender, address recipient, uint256 amount) internal virtual {\n        require(sender != address(0), \"ERC20: transfer from the zero address\");\n        require(recipient != address(0), \"ERC20: transfer to the zero address\");\n\n        _beforeTokenTransfer(sender, recipient, amount);\n\n        _balances[_balanceKey][sender] -= amount;\n        _balances[_balanceKey][recipient] += amount;\n        emit Transfer(sender, recipient, amount);\n    }\n\n    function _mint(address account, uint256 amount) internal virtual {\n        require(account != address(0), \"ERC20: mint to the zero address\");\n\n        _beforeTokenTransfer(address(0), account, amount);\n\n        _totalSupply += amount;\n        _balances[_balanceKey][account] += amount;\n        emit Transfer(address(0), account, amount);\n    }\n\n    function _burn(address account, uint256 amount) internal virtual {\n        require(account != address(0), \"ERC20: burn from the zero address\");\n\n        _beforeTokenTransfer(account, address(0), amount);\n\n        _balances[_balanceKey][account] -= amount;\n        _totalSupply -= amount;\n        emit Transfer(account, address(0), amount);\n    }\n\n    function _approve(address owner_, address spender, uint256 amount) internal virtual {\n        require(owner_ != address(0), \"ERC20: approve from the zero address\");\n        require(spender != address(0), \"ERC20: approve to the zero address\");\n\n        _allowances[owner_][spender] = amount;\n        emit Approval(owner_, spender, amount);\n    }\n\n    function _setupDecimals(uint8 decimals_) internal {\n        _decimals = decimals_;\n    }\n\n    function _upgrade() internal {\n        _balanceKey += 1;\n        _totalSupply = 0;\n    }\n\n    function _beforeTokenTransfer(address from, address to, uint256 amount) internal virtual { }\n}\n",
  "sourcePath": "/home/udeve/Workspace/SampleToken/contracts/MyERC20.sol",
  "compiler": {
    "name": "solc",
    "version": "0.8.1+commit.df193b15.Emscripten.clang"
  },
  "schemaVersion": "3.3.3",
  "updatedAt": "2021-02-02T22:58:49.223Z",
  "networkType": "ethereum",
  "devdoc": {
    "kind": "dev",
    "methods": {},
    "version": 1
  },
  "userdoc": {
    "kind": "user",
    "methods": {},
    "version": 1
  }
}