{
  "contractName": "NewDollar",
  "abi": [
    {
      "inputs": [
        {
          "internalType": "address",
          "name": "implementation_",
          "type": "address"
        },
        {
          "internalType": "string",
          "name": "name_",
          "type": "string"
        },
        {
          "internalType": "string",
          "name": "symbol_",
          "type": "string"
        },
        {
          "internalType": "uint8",
          "name": "decimals_",
          "type": "uint8"
        }
      ],
      "stateMutability": "nonpayable",
      "type": "constructor"
    },
    {
      "stateMutability": "payable",
      "type": "fallback",
      "payable": true
    },
    {
      "inputs": [],
      "name": "duration",
      "outputs": [
        {
          "internalType": "uint256",
          "name": "",
          "type": "uint256"
        }
      ],
      "stateMutability": "view",
      "type": "function",
      "constant": true
    },
    {
      "inputs": [],
      "name": "implementation",
      "outputs": [
        {
          "internalType": "address",
          "name": "",
          "type": "address"
        }
      ],
      "stateMutability": "view",
      "type": "function",
      "constant": true
    },
    {
      "inputs": [],
      "name": "owner",
      "outputs": [
        {
          "internalType": "address",
          "name": "",
          "type": "address"
        }
      ],
      "stateMutability": "view",
      "type": "function",
      "constant": true
    },
    {
      "inputs": [],
      "name": "updateTimestamp",
      "outputs": [
        {
          "internalType": "uint256",
          "name": "",
          "type": "uint256"
        }
      ],
      "stateMutability": "view",
      "type": "function",
      "constant": true
    },
    {
      "stateMutability": "payable",
      "type": "receive",
      "payable": true
    },
    {
      "inputs": [
        {
          "internalType": "address",
          "name": "implementation_",
          "type": "address"
        }
      ],
      "name": "upgradeImplementation",
      "outputs": [],
      "stateMutability": "nonpayable",
      "type": "function"
    }
  ],
  "bytecode": "0x6080604052603c60095534801561001557600080fd5b5060405161061e38038061061e83398101604081905261003491610203565b600b80546001600160a01b0319166001600160a01b03861617905582516100629060049060208601906100c2565b5081516100769060059060208501906100c2565b506006805460ff90921660ff19928316179055600a80546001600160a01b03191633908117909155600090815260026020526040902080549091166001179055505042600855506102ea565b8280546100ce90610299565b90600052602060002090601f0160209004810192826100f05760008555610136565b82601f1061010957805160ff1916838001178555610136565b82800160010185558215610136579182015b8281111561013657825182559160200191906001019061011b565b50610142929150610146565b5090565b5b808211156101425760008155600101610147565b600082601f83011261016b578081fd5b81516001600160401b0380821115610185576101856102d4565b604051601f8301601f19908116603f011681019082821181831017156101ad576101ad6102d4565b816040528381526020925086838588010111156101c8578485fd5b8491505b838210156101e957858201830151818301840152908201906101cc565b838211156101f957848385830101525b9695505050505050565b60008060008060808587031215610218578384fd5b84516001600160a01b038116811461022e578485fd5b60208601519094506001600160401b038082111561024a578485fd5b6102568883890161015b565b9450604087015191508082111561026b578384fd5b506102788782880161015b565b925050606085015160ff8116811461028e578182fd5b939692955090935050565b6002810460018216806102ad57607f821691505b602082108114156102ce57634e487b7160e01b600052602260045260246000fd5b50919050565b634e487b7160e01b600052604160045260246000fd5b610325806102f96000396000f3fe60806040526004361061004e5760003560e01c80630fb5a6b41461007f5780631c5be3d7146100aa5780635c60da1b146100bf57806383f94db7146100e15780638da5cb5b146101015761006a565b3661006a57600b54610068906001600160a01b0316610116565b005b600b54610068906001600160a01b0316610116565b34801561008b57600080fd5b5061009461013f565b6040516100a191906102e6565b60405180910390f35b3480156100b657600080fd5b50610094610145565b3480156100cb57600080fd5b506100d461014b565b6040516100a191906102b2565b3480156100ed57600080fd5b506100686100fc36600461024b565b61015a565b34801561010d57600080fd5b506100d461023c565b3660008037600080366000845af43d6000803e808015610135573d6000f35b3d6000fd5b505050565b60095481565b60085481565b600b546001600160a01b031681565b600a546001600160a01b0316331461018d5760405162461bcd60e51b8152600401610184906102c6565b60405180910390fd5b600b80546001600160a01b0383166001600160a01b0319909116811790915560408051600481526024810182526020810180516001600160e01b0316635d24faa560e11b1790529051600092839290916101e79190610279565b600060405180830381855af49150503d8060008114610222576040519150601f19603f3d011682016040523d82523d6000602084013e610227565b606091505b5091509150600082141561013a573d60208201fd5b600a546001600160a01b031681565b60006020828403121561025c578081fd5b81356001600160a01b0381168114610272578182fd5b9392505050565b60008251815b81811015610299576020818601810151858301520161027f565b818111156102a75782828501525b509190910192915050565b6001600160a01b0391909116815260200190565b60208082526006908201526510b7bbb732b960d11b604082015260600190565b9081526020019056fea2646970667358221220d08620bb2011881ce2900d708aa9a1e4fa5b9bc3201c40b2e8eeeeb04e38c28164736f6c63430008010033",
  "immutableReferences": {},
  "source": "// SPDX-License-Identifier: MIT\n\npragma solidity ^0.8.0;\n\n/**\n * The New Dollar\n * You are a Solidity engineer on a team that is building a one of a kind stablecoin\n * that the world has never seen before. This stablecoin uses a very unique pattern\n * and is designed to incentivize people who own these coins to spend them\n * as fast as possible to stimulate the economy. This bank is developing a stablecoin\n * whose user balances reset anytime the bank upgrades their stablecoin smart contract.\n * This means that if the bank has an upgrade every 30 days, you no longer own these\n * stablecoins at the end of the month.\n *\n * Problem\n * Design an ERC20 compliant token where the balances reset every time you upgrade it.\n * If you own this stablecoin in January, and there is always a smart contract upgrade\n * at the end of each month, then in February, you should not own those stablecoins\n * anymore. Your token should have all ERC20 interfaces and events. You can use\n * whatever framework or version of solidity that you would like, but you cannot use\n * a framework for handling the creation of the proxy contracts. It would be great\n * to have a few tests to demonstrate functionality without having to manually run\n * through things.\n *\n * Bonus\n * Build the token so that users' balance resets automatically every 30 days\n * in addition to resetting when the smart contract upgrades. This means that\n * the balances will reset when there is a smart contract upgrade, and they will\n * reset on the 30-day schedule.\n */\n\ncontract NewDollar {\n\n    mapping (uint256 => mapping (address => uint256)) internal _balances;\n\n    mapping (address => mapping (address => uint256)) internal _allowances;\n\n    mapping (address => bool) internal _minter;\n\n    uint256 internal _totalSupply;\n\n    string private _name;\n    string private _symbol;\n    uint8 private _decimals;\n    uint256 internal _balanceKey;\n    uint256 public updateTimestamp;\n    uint256 public duration = 60;//30 * 24 * 3600;\n    \n    address public owner;\n    address public implementation;\n\n\n    constructor (address implementation_, string memory name_, string memory symbol_, uint8 decimals_) {\n        implementation = implementation_;\n        _name = name_;\n        _symbol = symbol_;\n        _decimals = decimals_;\n        owner = msg.sender;\n        _minter[msg.sender] = true;\n        updateTimestamp = block.timestamp;\n    }\n\n    modifier onlyOwner() {\n        require(msg.sender == owner, \"!owner\");\n        _;\n    }\n\n    function upgradeImplementation(address implementation_) public onlyOwner{\n        implementation = implementation_;\n        (bool success, bytes memory returnData) = implementation_.delegatecall(abi.encodeWithSignature(\"_upgrade()\"));\n        assembly {\n            if eq(success, 0) {\n                revert(add(returnData, 0x20), returndatasize())\n            }\n        }\n    }\n\n    function _fallback(address implementation_) internal {\n        assembly {\n            // Copy msg.data. We take full control of memory in this inline assembly\n            // block because it will not return to Solidity code. We overwrite the\n            // Solidity scratch pad at memory position 0.\n            calldatacopy(0, 0, calldatasize())\n\n            // Call the implementation.\n            // out and outsize are 0 because we don't know the size yet.\n            let result := delegatecall(gas(), implementation_, 0, calldatasize(), 0, 0)\n\n            // Copy the returned data.\n            returndatacopy(0, 0, returndatasize())\n\n            switch result\n            // delegatecall returns 0 on error.\n            case 0 { revert(0, returndatasize()) }\n            default { return(0, returndatasize()) }\n        }\n    }\n\n    fallback() external payable {\n        _fallback(implementation);\n    }\n\n    receive() external payable {\n        _fallback(implementation);\n    }\n}",
  "sourcePath": "/home/udeve/Workspace/SampleToken/contracts/NewDollar.sol",
  "compiler": {
    "name": "solc",
    "version": "0.8.1+commit.df193b15.Emscripten.clang"
  },
  "schemaVersion": "3.3.3",
  "updatedAt": "2021-02-02T22:58:49.232Z",
  "networkType": "ethereum",
  "devdoc": {
    "kind": "dev",
    "methods": {},
    "version": 1
  },
  "userdoc": {
    "kind": "user",
    "methods": {},
    "notice": "The New Dollar You are a Solidity engineer on a team that is building a one of a kind stablecoin that the world has never seen before. This stablecoin uses a very unique pattern and is designed to incentivize people who own these coins to spend them as fast as possible to stimulate the economy. This bank is developing a stablecoin whose user balances reset anytime the bank upgrades their stablecoin smart contract. This means that if the bank has an upgrade every 30 days, you no longer own these stablecoins at the end of the month. Problem Design an ERC20 compliant token where the balances reset every time you upgrade it. If you own this stablecoin in January, and there is always a smart contract upgrade at the end of each month, then in February, you should not own those stablecoins anymore. Your token should have all ERC20 interfaces and events. You can use whatever framework or version of solidity that you would like, but you cannot use a framework for handling the creation of the proxy contracts. It would be great to have a few tests to demonstrate functionality without having to manually run through things. Bonus Build the token so that users' balance resets automatically every 30 days in addition to resetting when the smart contract upgrades. This means that the balances will reset when there is a smart contract upgrade, and they will reset on the 30-day schedule.",
    "version": 1
  }
}